{
    "contractName": "Withdrawable",
    "abi": [
        {
            "anonymous": false,
            "inputs": [
                {
                    "indexed": true,
                    "internalType": "address",
                    "name": "_from",
                    "type": "address"
                },
                {
                    "indexed": true,
                    "internalType": "address",
                    "name": "_assetAddress",
                    "type": "address"
                },
                {
                    "indexed": false,
                    "internalType": "uint256",
                    "name": "amount",
                    "type": "uint256"
                }
            ],
            "name": "LogWithdraw",
            "type": "event"
        },
        {
            "anonymous": false,
            "inputs": [
                {
                    "indexed": true,
                    "internalType": "address",
                    "name": "previousOwner",
                    "type": "address"
                },
                {
                    "indexed": true,
                    "internalType": "address",
                    "name": "newOwner",
                    "type": "address"
                }
            ],
            "name": "OwnershipTransferred",
            "type": "event"
        },
        {
            "inputs": [],
            "name": "owner",
            "outputs": [
                {
                    "internalType": "address",
                    "name": "",
                    "type": "address"
                }
            ],
            "stateMutability": "view",
            "type": "function"
        },
        {
            "inputs": [],
            "name": "renounceOwnership",
            "outputs": [],
            "stateMutability": "nonpayable",
            "type": "function"
        },
        {
            "inputs": [
                {
                    "internalType": "address",
                    "name": "newOwner",
                    "type": "address"
                }
            ],
            "name": "transferOwnership",
            "outputs": [],
            "stateMutability": "nonpayable",
            "type": "function"
        },
        {
            "inputs": [
                {
                    "internalType": "address",
                    "name": "_assetAddress",
                    "type": "address"
                }
            ],
            "name": "withdraw",
            "outputs": [],
            "stateMutability": "nonpayable",
            "type": "function"
        }
    ],
    "bytecode": "608060405234801561001057600080fd5b5061001a3361001f565b61006f565b600080546001600160a01b038381166001600160a01b0319831681178455604051919092169283917f8be0079c531659141344cd1fd0a4f28419497f9722a3daafe3b4186f6b6457e09190a35050565b6106f98061007e6000396000f3fe608060405234801561001057600080fd5b506004361061004c5760003560e01c806351cff8d914610051578063715018a6146100665780638da5cb5b1461006e578063f2fde38b1461008d575b600080fd5b61006461005f3660046105ab565b6100a0565b005b6100646101de565b600054604080516001600160a01b039092168252519081900360200190f35b61006461009b3660046105ab565b610214565b6000546001600160a01b031633146100d35760405162461bcd60e51b81526004016100ca906105d4565b60405180910390fd5b60006001600160a01b03821661011c575060405130803191339083156108fc029084906000818181858888f19350505050158015610115573d6000803e3d6000fd5b505061019a565b6040516370a0823160e01b81523060048201526001600160a01b038316906370a0823190602401602060405180830381865afa158015610160573d6000803e3d6000fd5b505050506040513d601f19601f820116820180604052508101906101849190610609565b905061019a6001600160a01b03831633836102af565b6040518181526001600160a01b0383169033907f9207361cc2a04b9c7a06691df1eb87c6a63957ae88bf01d0d18c81e3d12720999060200160405180910390a35050565b6000546001600160a01b031633146102085760405162461bcd60e51b81526004016100ca906105d4565b6102126000610306565b565b6000546001600160a01b0316331461023e5760405162461bcd60e51b81526004016100ca906105d4565b6001600160a01b0381166102a35760405162461bcd60e51b815260206004820152602660248201527f4f776e61626c653a206e6577206f776e657220697320746865207a65726f206160448201526564647265737360d01b60648201526084016100ca565b6102ac81610306565b50565b604080516001600160a01b038416602482015260448082018490528251808303909101815260649091019091526020810180516001600160e01b031663a9059cbb60e01b179052610301908490610356565b505050565b600080546001600160a01b038381166001600160a01b0319831681178455604051919092169283917f8be0079c531659141344cd1fd0a4f28419497f9722a3daafe3b4186f6b6457e09190a35050565b60006103ab826040518060400160405280602081526020017f5361666545524332303a206c6f772d6c6576656c2063616c6c206661696c6564815250856001600160a01b03166104289092919063ffffffff16565b80519091501561030157808060200190518101906103c99190610622565b6103015760405162461bcd60e51b815260206004820152602a60248201527f5361666545524332303a204552433230206f7065726174696f6e20646964206e6044820152691bdd081cdd58d8d9595960b21b60648201526084016100ca565b60606104378484600085610441565b90505b9392505050565b6060824710156104a25760405162461bcd60e51b815260206004820152602660248201527f416464726573733a20696e73756666696369656e742062616c616e636520666f6044820152651c8818d85b1b60d21b60648201526084016100ca565b6001600160a01b0385163b6104f95760405162461bcd60e51b815260206004820152601d60248201527f416464726573733a2063616c6c20746f206e6f6e2d636f6e747261637400000060448201526064016100ca565b600080866001600160a01b031685876040516105159190610674565b60006040518083038185875af1925050503d8060008114610552576040519150601f19603f3d011682016040523d82523d6000602084013e610557565b606091505b5091509150610567828286610572565b979650505050505050565b6060831561058157508161043a565b8251156105915782518084602001fd5b8160405162461bcd60e51b81526004016100ca9190610690565b6000602082840312156105bd57600080fd5b81356001600160a01b038116811461043a57600080fd5b6020808252818101527f4f776e61626c653a2063616c6c6572206973206e6f7420746865206f776e6572604082015260600190565b60006020828403121561061b57600080fd5b5051919050565b60006020828403121561063457600080fd5b8151801515811461043a57600080fd5b60005b8381101561065f578181015183820152602001610647565b8381111561066e576000848401525b50505050565b60008251610686818460208701610644565b9190910192915050565b60208152600082518060208401526106af816040850160208701610644565b601f01601f1916919091016040019291505056fea264697066735822122004579c79b094d7973e7cfd9d222ffc4164d1bfc297d4269ab3dc9e2b38f49cc364736f6c634300080c0033",
    "sourcePath": "c:/Vatsal/Arbatrage Bot/Arbatrage-Bot/contracts/utils/Withdrawable.sol",
    "compiler": {
        "name": "solc",
        "version": "0.8.12+commit.f00d7308"
    },
    "functionHashes": {
        "owner()": "8da5cb5b",
        "renounceOwnership()": "715018a6",
        "transferOwnership(address)": "f2fde38b",
        "withdraw(address)": "51cff8d9"
    },
    "gasEstimates": {
        "creation": {
            "codeDepositCost": "357000",
            "executionCost": "26234",
            "totalCost": "383234"
        },
        "external": {
            "owner()": "2314",
            "renounceOwnership()": "28114",
            "transferOwnership(address)": "28318",
            "withdraw(address)": "infinite"
        }
    }
}