{
    "contractName": "Flashloan",
    "abi": [
        {
            "inputs": [
                {
                    "internalType": "address",
                    "name": "_addressProvider",
                    "type": "address"
                }
            ],
            "stateMutability": "nonpayable",
            "type": "constructor"
        },
        {
            "anonymous": false,
            "inputs": [
                {
                    "indexed": true,
                    "internalType": "address",
                    "name": "_from",
                    "type": "address"
                },
                {
                    "indexed": true,
                    "internalType": "address",
                    "name": "_assetAddress",
                    "type": "address"
                },
                {
                    "indexed": false,
                    "internalType": "uint256",
                    "name": "amount",
                    "type": "uint256"
                }
            ],
            "name": "LogWithdraw",
            "type": "event"
        },
        {
            "anonymous": false,
            "inputs": [
                {
                    "indexed": true,
                    "internalType": "address",
                    "name": "previousOwner",
                    "type": "address"
                },
                {
                    "indexed": true,
                    "internalType": "address",
                    "name": "newOwner",
                    "type": "address"
                }
            ],
            "name": "OwnershipTransferred",
            "type": "event"
        },
        {
            "inputs": [
                {
                    "internalType": "uint256",
                    "name": "a",
                    "type": "uint256"
                },
                {
                    "internalType": "uint256",
                    "name": "b",
                    "type": "uint256"
                }
            ],
            "name": "add",
            "outputs": [
                {
                    "internalType": "uint256",
                    "name": "",
                    "type": "uint256"
                }
            ],
            "stateMutability": "pure",
            "type": "function"
        },
        {
            "inputs": [],
            "name": "addressesProvider",
            "outputs": [
                {
                    "internalType": "contract ILendingPoolAddressesProvider",
                    "name": "",
                    "type": "address"
                }
            ],
            "stateMutability": "view",
            "type": "function"
        },
        {
            "inputs": [
                {
                    "internalType": "address",
                    "name": "_reserve",
                    "type": "address"
                },
                {
                    "internalType": "uint256",
                    "name": "_amount",
                    "type": "uint256"
                },
                {
                    "internalType": "uint256",
                    "name": "_fee",
                    "type": "uint256"
                },
                {
                    "internalType": "bytes",
                    "name": "_params",
                    "type": "bytes"
                }
            ],
            "name": "executeOperation",
            "outputs": [],
            "stateMutability": "nonpayable",
            "type": "function"
        },
        {
            "inputs": [
                {
                    "internalType": "address",
                    "name": "_asset",
                    "type": "address"
                }
            ],
            "name": "flashloan",
            "outputs": [],
            "stateMutability": "nonpayable",
            "type": "function"
        },
        {
            "inputs": [],
            "name": "owner",
            "outputs": [
                {
                    "internalType": "address",
                    "name": "",
                    "type": "address"
                }
            ],
            "stateMutability": "view",
            "type": "function"
        },
        {
            "inputs": [],
            "name": "renounceOwnership",
            "outputs": [],
            "stateMutability": "nonpayable",
            "type": "function"
        },
        {
            "inputs": [
                {
                    "internalType": "address",
                    "name": "newOwner",
                    "type": "address"
                }
            ],
            "name": "transferOwnership",
            "outputs": [],
            "stateMutability": "nonpayable",
            "type": "function"
        },
        {
            "inputs": [
                {
                    "internalType": "address",
                    "name": "_assetAddress",
                    "type": "address"
                }
            ],
            "name": "withdraw",
            "outputs": [],
            "stateMutability": "nonpayable",
            "type": "function"
        },
        {
            "stateMutability": "payable",
            "type": "receive"
        }
    ],
    "bytecode": "608060405234801561001057600080fd5b50604051610e56380380610e5683398101604081905261002f916100af565b806100393361005f565b600180546001600160a01b0319166001600160a01b0392909216919091179055506100df565b600080546001600160a01b038381166001600160a01b0319831681178455604051919092169283917f8be0079c531659141344cd1fd0a4f28419497f9722a3daafe3b4186f6b6457e09190a35050565b6000602082840312156100c157600080fd5b81516001600160a01b03811681146100d857600080fd5b9392505050565b610d68806100ee6000396000f3fe60806040526004361061007f5760003560e01c80638da5cb5b1161004e5780638da5cb5b14610115578063c72c4d1014610147578063ee87255814610167578063f2fde38b1461018757600080fd5b806336c404771461008b57806351cff8d9146100ad578063715018a6146100cd578063771602f7146100e257600080fd5b3661008657005b600080fd5b34801561009757600080fd5b506100ab6100a6366004610ae6565b6101a7565b005b3480156100b957600080fd5b506100ab6100c8366004610ae6565b6102ce565b3480156100d957600080fd5b506100ab610403565b3480156100ee57600080fd5b506101026100fd366004610b03565b610439565b6040519081526020015b60405180910390f35b34801561012157600080fd5b506000546001600160a01b03165b6040516001600160a01b03909116815260200161010c565b34801561015357600080fd5b5060015461012f906001600160a01b031681565b34801561017357600080fd5b506100ab610182366004610b25565b61044e565b34801561019357600080fd5b506100ab6101a2366004610ae6565b6104de565b6000546001600160a01b031633146101da5760405162461bcd60e51b81526004016101d190610bbb565b60405180910390fd5b604080516020808201835260008083526001548451630261bf8b60e01b815294519394670de0b6b3a76400009492936001600160a01b0390921692630261bf8b926004808401939192918290030181865afa15801561023d573d6000803e3d6000fd5b505050506040513d601f19601f820116820180604052508101906102619190610bf0565b604051632e7ff4ef60e11b81529091506001600160a01b03821690635cffe9de90610296903090889087908990600401610c65565b600060405180830381600087803b1580156102b057600080fd5b505af11580156102c4573d6000803e3d6000fd5b5050505050505050565b6000546001600160a01b031633146102f85760405162461bcd60e51b81526004016101d190610bbb565b60006001600160a01b038216610341575060405130803191339083156108fc029084906000818181858888f1935050505015801561033a573d6000803e3d6000fd5b50506103bf565b6040516370a0823160e01b81523060048201526001600160a01b038316906370a0823190602401602060405180830381865afa158015610385573d6000803e3d6000fd5b505050506040513d601f19601f820116820180604052508101906103a99190610ca2565b90506103bf6001600160a01b0383163383610579565b6040518181526001600160a01b0383169033907f9207361cc2a04b9c7a06691df1eb87c6a63957ae88bf01d0d18c81e3d12720999060200160405180910390a35050565b6000546001600160a01b0316331461042d5760405162461bcd60e51b81526004016101d190610bbb565b61043760006105d0565b565b60006104458284610cbb565b90505b92915050565b6104583086610620565b8411156104be5760405162461bcd60e51b815260206004820152602e60248201527f496e76616c69642062616c616e63652c207761732074686520666c6173684c6f60448201526d616e207375636365737366756c3f60901b60648201526084016101d1565b60006104ca8585610439565b90506104d686826106c2565b505050505050565b6000546001600160a01b031633146105085760405162461bcd60e51b81526004016101d190610bbb565b6001600160a01b03811661056d5760405162461bcd60e51b815260206004820152602660248201527f4f776e61626c653a206e6577206f776e657220697320746865207a65726f206160448201526564647265737360d01b60648201526084016101d1565b610576816105d0565b50565b604080516001600160a01b038416602482015260448082018490528251808303909101815260649091019091526020810180516001600160e01b031663a9059cbb60e01b1790526105cb90849061073d565b505050565b600080546001600160a01b038381166001600160a01b0319831681178455604051919092169283917f8be0079c531659141344cd1fd0a4f28419497f9722a3daafe3b4186f6b6457e09190a35050565b60006001600160a01b03821673eeeeeeeeeeeeeeeeeeeeeeeeeeeeeeeeeeeeeeee141561065857506001600160a01b03821631610448565b6040516370a0823160e01b81526001600160a01b0384811660048301528316906370a0823190602401602060405180830381865afa15801561069e573d6000803e3d6000fd5b505050506040513d601f19601f820116820180604052508101906104459190610ca2565b6001546040805163076b7fbb60e51b815290516000926001600160a01b03169163ed6ff7609160048083019260209291908290030181865afa15801561070c573d6000803e3d6000fd5b505050506040513d601f19601f820116820180604052508101906107309190610bf0565b90506105cb81848461080f565b6000610792826040518060400160405280602081526020017f5361666545524332303a206c6f772d6c6576656c2063616c6c206661696c6564815250856001600160a01b031661094e9092919063ffffffff16565b8051909150156105cb57808060200190518101906107b09190610ce1565b6105cb5760405162461bcd60e51b815260206004820152602a60248201527f5361666545524332303a204552433230206f7065726174696f6e20646964206e6044820152691bdd081cdd58d8d9595960b21b60648201526084016101d1565b6001600160a01b03821673eeeeeeeeeeeeeeeeeeeeeeeeeeeeeeeeeeeeeeee14156108db576000836001600160a01b03168260405160006040518083038185875af1925050503d8060008114610881576040519150601f19603f3d011682016040523d82523d6000602084013e610886565b606091505b50909150506001811515146108d55760405162461bcd60e51b8152602060048201526015602482015274086deead8c8dc4ee840e8e4c2dce6cccae4408aa89605b1b60448201526064016101d1565b50505050565b60405163a9059cbb60e01b81526001600160a01b0384811660048301526024820183905283169063a9059cbb906044016020604051808303816000875af115801561092a573d6000803e3d6000fd5b505050506040513d601f19601f820116820180604052508101906108d59190610ce1565b606061095d8484600085610967565b90505b9392505050565b6060824710156109c85760405162461bcd60e51b815260206004820152602660248201527f416464726573733a20696e73756666696369656e742062616c616e636520666f6044820152651c8818d85b1b60d21b60648201526084016101d1565b6001600160a01b0385163b610a1f5760405162461bcd60e51b815260206004820152601d60248201527f416464726573733a2063616c6c20746f206e6f6e2d636f6e747261637400000060448201526064016101d1565b600080866001600160a01b03168587604051610a3b9190610d03565b60006040518083038185875af1925050503d8060008114610a78576040519150601f19603f3d011682016040523d82523d6000602084013e610a7d565b606091505b5091509150610a8d828286610a98565b979650505050505050565b60608315610aa7575081610960565b825115610ab75782518084602001fd5b8160405162461bcd60e51b81526004016101d19190610d1f565b6001600160a01b038116811461057657600080fd5b600060208284031215610af857600080fd5b813561096081610ad1565b60008060408385031215610b1657600080fd5b50508035926020909101359150565b600080600080600060808688031215610b3d57600080fd5b8535610b4881610ad1565b94506020860135935060408601359250606086013567ffffffffffffffff80821115610b7357600080fd5b818801915088601f830112610b8757600080fd5b813581811115610b9657600080fd5b896020828501011115610ba857600080fd5b9699959850939650602001949392505050565b6020808252818101527f4f776e61626c653a2063616c6c6572206973206e6f7420746865206f776e6572604082015260600190565b600060208284031215610c0257600080fd5b815161096081610ad1565b60005b83811015610c28578181015183820152602001610c10565b838111156108d55750506000910152565b60008151808452610c51816020860160208601610c0d565b601f01601f19169290920160200192915050565b6001600160a01b0385811682528416602082015260408101839052608060608201819052600090610c9890830184610c39565b9695505050505050565b600060208284031215610cb457600080fd5b5051919050565b60008219821115610cdc57634e487b7160e01b600052601160045260246000fd5b500190565b600060208284031215610cf357600080fd5b8151801515811461096057600080fd5b60008251610d15818460208701610c0d565b9190910192915050565b6020815260006104456020830184610c3956fea264697066735822122092c0140f90837d19e0b67be6c8f775db85f4eb643fbb1c0eb1a34fa087cd469564736f6c634300080c0033",
    "sourcePath": "c:/Vatsal/Arbatrage Bot/Arbatrage-Bot/contracts/Flashloan.sol",
    "compiler": {
        "name": "solc",
        "version": "0.8.12+commit.f00d7308"
    },
    "functionHashes": {
        "add(uint256,uint256)": "771602f7",
        "addressesProvider()": "c72c4d10",
        "executeOperation(address,uint256,uint256,bytes)": "ee872558",
        "flashloan(address)": "36c40477",
        "owner()": "8da5cb5b",
        "renounceOwnership()": "715018a6",
        "transferOwnership(address)": "f2fde38b",
        "withdraw(address)": "51cff8d9"
    },
    "gasEstimates": {
        "creation": {
            "codeDepositCost": "686400",
            "executionCost": "infinite",
            "totalCost": "infinite"
        },
        "external": {
            "add(uint256,uint256)": "446",
            "addressesProvider()": "2359",
            "executeOperation(address,uint256,uint256,bytes)": "infinite",
            "flashloan(address)": "infinite",
            "owner()": "2320",
            "renounceOwnership()": "28159",
            "transferOwnership(address)": "infinite",
            "withdraw(address)": "infinite"
        }
    }
}