{
  "contractName": "Flashloan",
  "abi": [
    {
      "inputs": [
        {
          "internalType": "address",
          "name": "_addressProvider",
          "type": "address"
        }
      ],
      "stateMutability": "nonpayable",
      "type": "constructor"
    },
    {
      "anonymous": false,
      "inputs": [
        {
          "indexed": true,
          "internalType": "address",
          "name": "_from",
          "type": "address"
        },
        {
          "indexed": true,
          "internalType": "address",
          "name": "_assetAddress",
          "type": "address"
        },
        {
          "indexed": false,
          "internalType": "uint256",
          "name": "amount",
          "type": "uint256"
        }
      ],
      "name": "LogWithdraw",
      "type": "event"
    },
    {
      "anonymous": false,
      "inputs": [
        {
          "indexed": true,
          "internalType": "address",
          "name": "previousOwner",
          "type": "address"
        },
        {
          "indexed": true,
          "internalType": "address",
          "name": "newOwner",
          "type": "address"
        }
      ],
      "name": "OwnershipTransferred",
      "type": "event"
    },
    {
      "inputs": [],
      "name": "addressesProvider",
      "outputs": [
        {
          "internalType": "contract ILendingPoolAddressesProvider",
          "name": "",
          "type": "address"
        }
      ],
      "stateMutability": "view",
      "type": "function"
    },
    {
      "inputs": [],
      "name": "owner",
      "outputs": [
        {
          "internalType": "address",
          "name": "",
          "type": "address"
        }
      ],
      "stateMutability": "view",
      "type": "function"
    },
    {
      "inputs": [],
      "name": "renounceOwnership",
      "outputs": [],
      "stateMutability": "nonpayable",
      "type": "function"
    },
    {
      "inputs": [
        {
          "internalType": "address",
          "name": "newOwner",
          "type": "address"
        }
      ],
      "name": "transferOwnership",
      "outputs": [],
      "stateMutability": "nonpayable",
      "type": "function"
    },
    {
      "inputs": [
        {
          "internalType": "address",
          "name": "_assetAddress",
          "type": "address"
        }
      ],
      "name": "withdraw",
      "outputs": [],
      "stateMutability": "nonpayable",
      "type": "function"
    },
    {
      "stateMutability": "payable",
      "type": "receive"
    },
    {
      "inputs": [
        {
          "internalType": "uint256",
          "name": "a",
          "type": "uint256"
        },
        {
          "internalType": "uint256",
          "name": "b",
          "type": "uint256"
        }
      ],
      "name": "add",
      "outputs": [
        {
          "internalType": "uint256",
          "name": "",
          "type": "uint256"
        }
      ],
      "stateMutability": "pure",
      "type": "function"
    },
    {
      "inputs": [
        {
          "internalType": "address",
          "name": "_reserve",
          "type": "address"
        },
        {
          "internalType": "uint256",
          "name": "_amount",
          "type": "uint256"
        },
        {
          "internalType": "uint256",
          "name": "_fee",
          "type": "uint256"
        },
        {
          "internalType": "bytes",
          "name": "_params",
          "type": "bytes"
        }
      ],
      "name": "executeOperation",
      "outputs": [],
      "stateMutability": "nonpayable",
      "type": "function"
    },
    {
      "inputs": [
        {
          "internalType": "address",
          "name": "_asset",
          "type": "address"
        }
      ],
      "name": "flashloan",
      "outputs": [],
      "stateMutability": "nonpayable",
      "type": "function"
    }
  ],
  "bytecode": "0x60806040523480156200001157600080fd5b5060405162001bbf38038062001bbf8339818101604052810190620000379190620001d7565b80620000586200004c620000a160201b60201c565b620000a960201b60201c565b80600160006101000a81548173ffffffffffffffffffffffffffffffffffffffff021916908373ffffffffffffffffffffffffffffffffffffffff160217905550505062000209565b600033905090565b60008060009054906101000a900473ffffffffffffffffffffffffffffffffffffffff169050816000806101000a81548173ffffffffffffffffffffffffffffffffffffffff021916908373ffffffffffffffffffffffffffffffffffffffff1602179055508173ffffffffffffffffffffffffffffffffffffffff168173ffffffffffffffffffffffffffffffffffffffff167f8be0079c531659141344cd1fd0a4f28419497f9722a3daafe3b4186f6b6457e060405160405180910390a35050565b600080fd5b600073ffffffffffffffffffffffffffffffffffffffff82169050919050565b60006200019f8262000172565b9050919050565b620001b18162000192565b8114620001bd57600080fd5b50565b600081519050620001d181620001a6565b92915050565b600060208284031215620001f057620001ef6200016d565b5b60006200020084828501620001c0565b91505092915050565b6119a680620002196000396000f3fe60806040526004361061007f5760003560e01c80638da5cb5b1161004e5780638da5cb5b14610131578063c72c4d101461015c578063ee87255814610187578063f2fde38b146101b057610086565b806336c404771461008b57806351cff8d9146100b4578063715018a6146100dd578063771602f7146100f457610086565b3661008657005b600080fd5b34801561009757600080fd5b506100b260048036038101906100ad9190610f50565b6101d9565b005b3480156100c057600080fd5b506100db60048036038101906100d69190610f50565b610382565b005b3480156100e957600080fd5b506100f26105b1565b005b34801561010057600080fd5b5061011b60048036038101906101169190610fb3565b610639565b6040516101289190611002565b60405180910390f35b34801561013d57600080fd5b5061014661064f565b604051610153919061102c565b60405180910390f35b34801561016857600080fd5b50610171610678565b60405161017e91906110a6565b60405180910390f35b34801561019357600080fd5b506101ae60048036038101906101a99190611126565b61069e565b005b3480156101bc57600080fd5b506101d760048036038101906101d29190610f50565b61070a565b005b6101e1610802565b73ffffffffffffffffffffffffffffffffffffffff166101ff61064f565b73ffffffffffffffffffffffffffffffffffffffff1614610255576040517f08c379a000000000000000000000000000000000000000000000000000000000815260040161024c9061120b565b60405180910390fd5b60006040518060200160405280600081525090506000670de0b6b3a764000090506000600160009054906101000a900473ffffffffffffffffffffffffffffffffffffffff1673ffffffffffffffffffffffffffffffffffffffff16630261bf8b6040518163ffffffff1660e01b8152600401602060405180830381865afa1580156102e5573d6000803e3d6000fd5b505050506040513d601f19601f820116820180604052508101906103099190611240565b90508073ffffffffffffffffffffffffffffffffffffffff16635cffe9de308685876040518563ffffffff1660e01b815260040161034a9493929190611306565b600060405180830381600087803b15801561036457600080fd5b505af1158015610378573d6000803e3d6000fd5b5050505050505050565b61038a610802565b73ffffffffffffffffffffffffffffffffffffffff166103a861064f565b73ffffffffffffffffffffffffffffffffffffffff16146103fe576040517f08c379a00000000000000000000000000000000000000000000000000000000081526004016103f59061120b565b60405180910390fd5b60008073ffffffffffffffffffffffffffffffffffffffff168273ffffffffffffffffffffffffffffffffffffffff1614156104a05760003090508073ffffffffffffffffffffffffffffffffffffffff163191503373ffffffffffffffffffffffffffffffffffffffff166108fc839081150290604051600060405180830381858888f19350505050158015610499573d6000803e3d6000fd5b5050610548565b8173ffffffffffffffffffffffffffffffffffffffff166370a08231306040518263ffffffff1660e01b81526004016104d9919061102c565b602060405180830381865afa1580156104f6573d6000803e3d6000fd5b505050506040513d601f19601f8201168201806040525081019061051a9190611367565b905061054733828473ffffffffffffffffffffffffffffffffffffffff1661080a9092919063ffffffff16565b5b8173ffffffffffffffffffffffffffffffffffffffff163373ffffffffffffffffffffffffffffffffffffffff167f9207361cc2a04b9c7a06691df1eb87c6a63957ae88bf01d0d18c81e3d1272099836040516105a59190611002565b60405180910390a35050565b6105b9610802565b73ffffffffffffffffffffffffffffffffffffffff166105d761064f565b73ffffffffffffffffffffffffffffffffffffffff161461062d576040517f08c379a00000000000000000000000000000000000000000000000000000000081526004016106249061120b565b60405180910390fd5b6106376000610890565b565b6000818361064791906113c3565b905092915050565b60008060009054906101000a900473ffffffffffffffffffffffffffffffffffffffff16905090565b600160009054906101000a900473ffffffffffffffffffffffffffffffffffffffff1681565b6106a83086610954565b8411156106ea576040517f08c379a00000000000000000000000000000000000000000000000000000000081526004016106e19061148b565b60405180910390fd5b60006106f68585610639565b90506107028682610a40565b505050505050565b610712610802565b73ffffffffffffffffffffffffffffffffffffffff1661073061064f565b73ffffffffffffffffffffffffffffffffffffffff1614610786576040517f08c379a000000000000000000000000000000000000000000000000000000000815260040161077d9061120b565b60405180910390fd5b600073ffffffffffffffffffffffffffffffffffffffff168173ffffffffffffffffffffffffffffffffffffffff1614156107f6576040517f08c379a00000000000000000000000000000000000000000000000000000000081526004016107ed9061151d565b60405180910390fd5b6107ff81610890565b50565b600033905090565b61088b8363a9059cbb60e01b848460405160240161082992919061153d565b604051602081830303815290604052907bffffffffffffffffffffffffffffffffffffffffffffffffffffffff19166020820180517bffffffffffffffffffffffffffffffffffffffffffffffffffffffff8381831617835250505050610ae5565b505050565b60008060009054906101000a900473ffffffffffffffffffffffffffffffffffffffff169050816000806101000a81548173ffffffffffffffffffffffffffffffffffffffff021916908373ffffffffffffffffffffffffffffffffffffffff1602179055508173ffffffffffffffffffffffffffffffffffffffff168173ffffffffffffffffffffffffffffffffffffffff167f8be0079c531659141344cd1fd0a4f28419497f9722a3daafe3b4186f6b6457e060405160405180910390a35050565b600073eeeeeeeeeeeeeeeeeeeeeeeeeeeeeeeeeeeeeeee73ffffffffffffffffffffffffffffffffffffffff168273ffffffffffffffffffffffffffffffffffffffff1614156109bd578273ffffffffffffffffffffffffffffffffffffffff16319050610a3a565b8173ffffffffffffffffffffffffffffffffffffffff166370a08231846040518263ffffffff1660e01b81526004016109f6919061102c565b602060405180830381865afa158015610a13573d6000803e3d6000fd5b505050506040513d601f19601f82011682018060405250810190610a379190611367565b90505b92915050565b6000600160009054906101000a900473ffffffffffffffffffffffffffffffffffffffff1673ffffffffffffffffffffffffffffffffffffffff1663ed6ff7606040518163ffffffff1660e01b8152600401602060405180830381865afa158015610aaf573d6000803e3d6000fd5b505050506040513d601f19601f82011682018060405250810190610ad391906115a4565b9050610ae0818484610bac565b505050565b6000610b47826040518060400160405280602081526020017f5361666545524332303a206c6f772d6c6576656c2063616c6c206661696c65648152508573ffffffffffffffffffffffffffffffffffffffff16610d329092919063ffffffff16565b9050600081511115610ba75780806020019051810190610b679190611609565b610ba6576040517f08c379a0000000000000000000000000000000000000000000000000000000008152600401610b9d906116a8565b60405180910390fd5b5b505050565b73eeeeeeeeeeeeeeeeeeeeeeeeeeeeeeeeeeeeeeee73ffffffffffffffffffffffffffffffffffffffff168273ffffffffffffffffffffffffffffffffffffffff161415610cad5760008373ffffffffffffffffffffffffffffffffffffffff1682604051610c1a906116f9565b60006040518083038185875af1925050503d8060008114610c57576040519150601f19603f3d011682016040523d82523d6000602084013e610c5c565b606091505b505090506001151581151514610ca7576040517f08c379a0000000000000000000000000000000000000000000000000000000008152600401610c9e9061175a565b60405180910390fd5b50610d2d565b8173ffffffffffffffffffffffffffffffffffffffff1663a9059cbb84836040518363ffffffff1660e01b8152600401610ce892919061179b565b6020604051808303816000875af1158015610d07573d6000803e3d6000fd5b505050506040513d601f19601f82011682018060405250810190610d2b9190611609565b505b505050565b6060610d418484600085610d4a565b90509392505050565b606082471015610d8f576040517f08c379a0000000000000000000000000000000000000000000000000000000008152600401610d8690611836565b60405180910390fd5b610d9885610e5e565b610dd7576040517f08c379a0000000000000000000000000000000000000000000000000000000008152600401610dce906118a2565b60405180910390fd5b6000808673ffffffffffffffffffffffffffffffffffffffff168587604051610e0091906118f3565b60006040518083038185875af1925050503d8060008114610e3d576040519150601f19603f3d011682016040523d82523d6000602084013e610e42565b606091505b5091509150610e52828286610e81565b92505050949350505050565b6000808273ffffffffffffffffffffffffffffffffffffffff163b119050919050565b60608315610e9157829050610ee1565b600083511115610ea45782518084602001fd5b816040517f08c379a0000000000000000000000000000000000000000000000000000000008152600401610ed8919061194e565b60405180910390fd5b9392505050565b600080fd5b600080fd5b600073ffffffffffffffffffffffffffffffffffffffff82169050919050565b6000610f1d82610ef2565b9050919050565b610f2d81610f12565b8114610f3857600080fd5b50565b600081359050610f4a81610f24565b92915050565b600060208284031215610f6657610f65610ee8565b5b6000610f7484828501610f3b565b91505092915050565b6000819050919050565b610f9081610f7d565b8114610f9b57600080fd5b50565b600081359050610fad81610f87565b92915050565b60008060408385031215610fca57610fc9610ee8565b5b6000610fd885828601610f9e565b9250506020610fe985828601610f9e565b9150509250929050565b610ffc81610f7d565b82525050565b60006020820190506110176000830184610ff3565b92915050565b61102681610f12565b82525050565b6000602082019050611041600083018461101d565b92915050565b6000819050919050565b600061106c61106761106284610ef2565b611047565b610ef2565b9050919050565b600061107e82611051565b9050919050565b600061109082611073565b9050919050565b6110a081611085565b82525050565b60006020820190506110bb6000830184611097565b92915050565b600080fd5b600080fd5b600080fd5b60008083601f8401126110e6576110e56110c1565b5b8235905067ffffffffffffffff811115611103576111026110c6565b5b60208301915083600182028301111561111f5761111e6110cb565b5b9250929050565b60008060008060006080868803121561114257611141610ee8565b5b600061115088828901610f3b565b955050602061116188828901610f9e565b945050604061117288828901610f9e565b935050606086013567ffffffffffffffff81111561119357611192610eed565b5b61119f888289016110d0565b92509250509295509295909350565b600082825260208201905092915050565b7f4f776e61626c653a2063616c6c6572206973206e6f7420746865206f776e6572600082015250565b60006111f56020836111ae565b9150611200826111bf565b602082019050919050565b60006020820190508181036000830152611224816111e8565b9050919050565b60008151905061123a81610f24565b92915050565b60006020828403121561125657611255610ee8565b5b60006112648482850161122b565b91505092915050565b600081519050919050565b600082825260208201905092915050565b60005b838110156112a757808201518184015260208101905061128c565b838111156112b6576000848401525b50505050565b6000601f19601f8301169050919050565b60006112d88261126d565b6112e28185611278565b93506112f2818560208601611289565b6112fb816112bc565b840191505092915050565b600060808201905061131b600083018761101d565b611328602083018661101d565b6113356040830185610ff3565b818103606083015261134781846112cd565b905095945050505050565b60008151905061136181610f87565b92915050565b60006020828403121561137d5761137c610ee8565b5b600061138b84828501611352565b91505092915050565b7f4e487b7100000000000000000000000000000000000000000000000000000000600052601160045260246000fd5b60006113ce82610f7d565b91506113d983610f7d565b9250827fffffffffffffffffffffffffffffffffffffffffffffffffffffffffffffffff0382111561140e5761140d611394565b5b828201905092915050565b7f496e76616c69642062616c616e63652c207761732074686520666c6173684c6f60008201527f616e207375636365737366756c3f000000000000000000000000000000000000602082015250565b6000611475602e836111ae565b915061148082611419565b604082019050919050565b600060208201905081810360008301526114a481611468565b9050919050565b7f4f776e61626c653a206e6577206f776e657220697320746865207a65726f206160008201527f6464726573730000000000000000000000000000000000000000000000000000602082015250565b60006115076026836111ae565b9150611512826114ab565b604082019050919050565b60006020820190508181036000830152611536816114fa565b9050919050565b6000604082019050611552600083018561101d565b61155f6020830184610ff3565b9392505050565b600061157182610ef2565b9050919050565b61158181611566565b811461158c57600080fd5b50565b60008151905061159e81611578565b92915050565b6000602082840312156115ba576115b9610ee8565b5b60006115c88482850161158f565b91505092915050565b60008115159050919050565b6115e6816115d1565b81146115f157600080fd5b50565b600081519050611603816115dd565b92915050565b60006020828403121561161f5761161e610ee8565b5b600061162d848285016115f4565b91505092915050565b7f5361666545524332303a204552433230206f7065726174696f6e20646964206e60008201527f6f74207375636365656400000000000000000000000000000000000000000000602082015250565b6000611692602a836111ae565b915061169d82611636565b604082019050919050565b600060208201905081810360008301526116c181611685565b9050919050565b600081905092915050565b50565b60006116e36000836116c8565b91506116ee826116d3565b600082019050919050565b6000611704826116d6565b9150819050919050565b7f436f756c646e2774207472616e73666572204554480000000000000000000000600082015250565b60006117446015836111ae565b915061174f8261170e565b602082019050919050565b6000602082019050818103600083015261177381611737565b9050919050565b600061178582611073565b9050919050565b6117958161177a565b82525050565b60006040820190506117b0600083018561178c565b6117bd6020830184610ff3565b9392505050565b7f416464726573733a20696e73756666696369656e742062616c616e636520666f60008201527f722063616c6c0000000000000000000000000000000000000000000000000000602082015250565b60006118206026836111ae565b915061182b826117c4565b604082019050919050565b6000602082019050818103600083015261184f81611813565b9050919050565b7f416464726573733a2063616c6c20746f206e6f6e2d636f6e7472616374000000600082015250565b600061188c601d836111ae565b915061189782611856565b602082019050919050565b600060208201905081810360008301526118bb8161187f565b9050919050565b60006118cd8261126d565b6118d781856116c8565b93506118e7818560208601611289565b80840191505092915050565b60006118ff82846118c2565b915081905092915050565b600081519050919050565b60006119208261190a565b61192a81856111ae565b935061193a818560208601611289565b611943816112bc565b840191505092915050565b600060208201905081810360008301526119688184611915565b90509291505056fea2646970667358221220accd29411f756be5620aa93d10290378b46e91a22bff1cf9c20cb217a498dcb164736f6c634300080b0033",
  "immutableReferences": {},
  "source": "// SPDX-License-Identifier: MIT\r\npragma solidity >=0.6.0 <0.9.0;\r\n\r\nimport './aave/FlashLoanReceiverBase.sol';\r\nimport './aave/ILendingPoolAddressesProvider.sol';\r\nimport './aave/ILendingPool.sol';\r\nimport '@openzeppelin/contracts/utils/math/SafeMath.sol';\r\n\r\ncontract Flashloan is FlashLoanReceiverBase {\r\n    constructor(address _addressProvider)\r\n        FlashLoanReceiverBase(_addressProvider)\r\n    {}\r\n\r\n    function add(uint256 a, uint256 b) public pure returns (uint256) {\r\n        return a + b;\r\n    }\r\n\r\n    /**\r\n        This function is called after your contract has received the flash loaned amount\r\n     */\r\n    function executeOperation(\r\n        address _reserve,\r\n        uint256 _amount,\r\n        uint256 _fee,\r\n        bytes calldata _params\r\n    ) external override {\r\n        require(\r\n            _amount <= getBalanceInternal(address(this), _reserve),\r\n            'Invalid balance, was the flashLoan successful?'\r\n        );\r\n\r\n        //\r\n        // Your logic goes here.\r\n        // !! Ensure that *this contract* has enough of `_reserve` funds to payback the `_fee` !!\r\n        //\r\n\r\n        uint256 totalDebt = add(_amount, _fee);\r\n        transferFundsBackToPoolInternal(_reserve, totalDebt);\r\n        _params;\r\n    }\r\n\r\n    /**\r\n        Flash loan 1000000000000000000 wei (1 ether) worth of `_asset`\r\n     */\r\n    function flashloan(address _asset) public onlyOwner {\r\n        bytes memory data = '';\r\n        uint256 amount = 1 ether;\r\n\r\n        ILendingPool lendingPool = ILendingPool(\r\n            addressesProvider.getLendingPool()\r\n        );\r\n        lendingPool.flashLoan(address(this), _asset, amount, data);\r\n    }\r\n}\r\n",
  "sourcePath": "C:\\Vatsal\\Arbatrage Bot\\Arbatrage-Bot\\contracts\\Flashloan.sol",
  "compiler": {
    "name": "solc",
    "version": "0.8.11+commit.d7f03943.Emscripten.clang"
  },
  "schemaVersion": "3.4.5",
  "updatedAt": "2022-02-25T23:57:56.740Z",
  "devdoc": {
    "kind": "dev",
    "methods": {
      "owner()": {
        "details": "Returns the address of the current owner."
      },
      "renounceOwnership()": {
        "details": "Leaves the contract without owner. It will not be possible to call `onlyOwner` functions anymore. Can only be called by the current owner. NOTE: Renouncing ownership will leave the contract without an owner, thereby removing any functionality that is only available to the owner."
      },
      "transferOwnership(address)": {
        "details": "Transfers ownership of the contract to a new account (`newOwner`). Can only be called by the current owner."
      },
      "withdraw(address)": {
        "details": "Withdraw asset.",
        "params": {
          "_assetAddress": "Asset to be withdrawn."
        }
      }
    },
    "version": 1
  },
  "userdoc": {
    "kind": "user",
    "methods": {
      "executeOperation(address,uint256,uint256,bytes)": {
        "notice": "This function is called after your contract has received the flash loaned amount"
      },
      "flashloan(address)": {
        "notice": "Flash loan 1000000000000000000 wei (1 ether) worth of `_asset`"
      }
    },
    "version": 1
  }
}