{
  "contractName": "Withdrawable",
  "abi": [
    {
      "anonymous": false,
      "inputs": [
        {
          "indexed": true,
          "internalType": "address",
          "name": "_from",
          "type": "address"
        },
        {
          "indexed": true,
          "internalType": "address",
          "name": "_assetAddress",
          "type": "address"
        },
        {
          "indexed": false,
          "internalType": "uint256",
          "name": "amount",
          "type": "uint256"
        }
      ],
      "name": "LogWithdraw",
      "type": "event"
    },
    {
      "anonymous": false,
      "inputs": [
        {
          "indexed": true,
          "internalType": "address",
          "name": "previousOwner",
          "type": "address"
        },
        {
          "indexed": true,
          "internalType": "address",
          "name": "newOwner",
          "type": "address"
        }
      ],
      "name": "OwnershipTransferred",
      "type": "event"
    },
    {
      "inputs": [],
      "name": "owner",
      "outputs": [
        {
          "internalType": "address",
          "name": "",
          "type": "address"
        }
      ],
      "stateMutability": "view",
      "type": "function"
    },
    {
      "inputs": [],
      "name": "renounceOwnership",
      "outputs": [],
      "stateMutability": "nonpayable",
      "type": "function"
    },
    {
      "inputs": [
        {
          "internalType": "address",
          "name": "newOwner",
          "type": "address"
        }
      ],
      "name": "transferOwnership",
      "outputs": [],
      "stateMutability": "nonpayable",
      "type": "function"
    },
    {
      "inputs": [
        {
          "internalType": "address",
          "name": "_assetAddress",
          "type": "address"
        }
      ],
      "name": "withdraw",
      "outputs": [],
      "stateMutability": "nonpayable",
      "type": "function"
    }
  ],
  "bytecode": "0x608060405234801561001057600080fd5b5061002d61002261003260201b60201c565b61003a60201b60201c565b6100fe565b600033905090565b60008060009054906101000a900473ffffffffffffffffffffffffffffffffffffffff169050816000806101000a81548173ffffffffffffffffffffffffffffffffffffffff021916908373ffffffffffffffffffffffffffffffffffffffff1602179055508173ffffffffffffffffffffffffffffffffffffffff168173ffffffffffffffffffffffffffffffffffffffff167f8be0079c531659141344cd1fd0a4f28419497f9722a3daafe3b4186f6b6457e060405160405180910390a35050565b610e0a8061010d6000396000f3fe608060405234801561001057600080fd5b506004361061004c5760003560e01c806351cff8d914610051578063715018a61461006d5780638da5cb5b14610077578063f2fde38b14610095575b600080fd5b61006b600480360381019061006691906108bb565b6100b1565b005b6100756102e0565b005b61007f610368565b60405161008c91906108f7565b60405180910390f35b6100af60048036038101906100aa91906108bb565b610391565b005b6100b9610489565b73ffffffffffffffffffffffffffffffffffffffff166100d7610368565b73ffffffffffffffffffffffffffffffffffffffff161461012d576040517f08c379a00000000000000000000000000000000000000000000000000000000081526004016101249061096f565b60405180910390fd5b60008073ffffffffffffffffffffffffffffffffffffffff168273ffffffffffffffffffffffffffffffffffffffff1614156101cf5760003090508073ffffffffffffffffffffffffffffffffffffffff163191503373ffffffffffffffffffffffffffffffffffffffff166108fc839081150290604051600060405180830381858888f193505050501580156101c8573d6000803e3d6000fd5b5050610277565b8173ffffffffffffffffffffffffffffffffffffffff166370a08231306040518263ffffffff1660e01b815260040161020891906108f7565b602060405180830381865afa158015610225573d6000803e3d6000fd5b505050506040513d601f19601f8201168201806040525081019061024991906109c5565b905061027633828473ffffffffffffffffffffffffffffffffffffffff166104919092919063ffffffff16565b5b8173ffffffffffffffffffffffffffffffffffffffff163373ffffffffffffffffffffffffffffffffffffffff167f9207361cc2a04b9c7a06691df1eb87c6a63957ae88bf01d0d18c81e3d1272099836040516102d49190610a01565b60405180910390a35050565b6102e8610489565b73ffffffffffffffffffffffffffffffffffffffff16610306610368565b73ffffffffffffffffffffffffffffffffffffffff161461035c576040517f08c379a00000000000000000000000000000000000000000000000000000000081526004016103539061096f565b60405180910390fd5b6103666000610517565b565b60008060009054906101000a900473ffffffffffffffffffffffffffffffffffffffff16905090565b610399610489565b73ffffffffffffffffffffffffffffffffffffffff166103b7610368565b73ffffffffffffffffffffffffffffffffffffffff161461040d576040517f08c379a00000000000000000000000000000000000000000000000000000000081526004016104049061096f565b60405180910390fd5b600073ffffffffffffffffffffffffffffffffffffffff168173ffffffffffffffffffffffffffffffffffffffff16141561047d576040517f08c379a000000000000000000000000000000000000000000000000000000000815260040161047490610a8e565b60405180910390fd5b61048681610517565b50565b600033905090565b6105128363a9059cbb60e01b84846040516024016104b0929190610aae565b604051602081830303815290604052907bffffffffffffffffffffffffffffffffffffffffffffffffffffffff19166020820180517bffffffffffffffffffffffffffffffffffffffffffffffffffffffff83818316178352505050506105db565b505050565b60008060009054906101000a900473ffffffffffffffffffffffffffffffffffffffff169050816000806101000a81548173ffffffffffffffffffffffffffffffffffffffff021916908373ffffffffffffffffffffffffffffffffffffffff1602179055508173ffffffffffffffffffffffffffffffffffffffff168173ffffffffffffffffffffffffffffffffffffffff167f8be0079c531659141344cd1fd0a4f28419497f9722a3daafe3b4186f6b6457e060405160405180910390a35050565b600061063d826040518060400160405280602081526020017f5361666545524332303a206c6f772d6c6576656c2063616c6c206661696c65648152508573ffffffffffffffffffffffffffffffffffffffff166106a29092919063ffffffff16565b905060008151111561069d578080602001905181019061065d9190610b0f565b61069c576040517f08c379a000000000000000000000000000000000000000000000000000000000815260040161069390610bae565b60405180910390fd5b5b505050565b60606106b184846000856106ba565b90509392505050565b6060824710156106ff576040517f08c379a00000000000000000000000000000000000000000000000000000000081526004016106f690610c40565b60405180910390fd5b610708856107ce565b610747576040517f08c379a000000000000000000000000000000000000000000000000000000000815260040161073e90610cac565b60405180910390fd5b6000808673ffffffffffffffffffffffffffffffffffffffff1685876040516107709190610d46565b60006040518083038185875af1925050503d80600081146107ad576040519150601f19603f3d011682016040523d82523d6000602084013e6107b2565b606091505b50915091506107c28282866107f1565b92505050949350505050565b6000808273ffffffffffffffffffffffffffffffffffffffff163b119050919050565b6060831561080157829050610851565b6000835111156108145782518084602001fd5b816040517f08c379a00000000000000000000000000000000000000000000000000000000081526004016108489190610db2565b60405180910390fd5b9392505050565b600080fd5b600073ffffffffffffffffffffffffffffffffffffffff82169050919050565b60006108888261085d565b9050919050565b6108988161087d565b81146108a357600080fd5b50565b6000813590506108b58161088f565b92915050565b6000602082840312156108d1576108d0610858565b5b60006108df848285016108a6565b91505092915050565b6108f18161087d565b82525050565b600060208201905061090c60008301846108e8565b92915050565b600082825260208201905092915050565b7f4f776e61626c653a2063616c6c6572206973206e6f7420746865206f776e6572600082015250565b6000610959602083610912565b915061096482610923565b602082019050919050565b600060208201905081810360008301526109888161094c565b9050919050565b6000819050919050565b6109a28161098f565b81146109ad57600080fd5b50565b6000815190506109bf81610999565b92915050565b6000602082840312156109db576109da610858565b5b60006109e9848285016109b0565b91505092915050565b6109fb8161098f565b82525050565b6000602082019050610a1660008301846109f2565b92915050565b7f4f776e61626c653a206e6577206f776e657220697320746865207a65726f206160008201527f6464726573730000000000000000000000000000000000000000000000000000602082015250565b6000610a78602683610912565b9150610a8382610a1c565b604082019050919050565b60006020820190508181036000830152610aa781610a6b565b9050919050565b6000604082019050610ac360008301856108e8565b610ad060208301846109f2565b9392505050565b60008115159050919050565b610aec81610ad7565b8114610af757600080fd5b50565b600081519050610b0981610ae3565b92915050565b600060208284031215610b2557610b24610858565b5b6000610b3384828501610afa565b91505092915050565b7f5361666545524332303a204552433230206f7065726174696f6e20646964206e60008201527f6f74207375636365656400000000000000000000000000000000000000000000602082015250565b6000610b98602a83610912565b9150610ba382610b3c565b604082019050919050565b60006020820190508181036000830152610bc781610b8b565b9050919050565b7f416464726573733a20696e73756666696369656e742062616c616e636520666f60008201527f722063616c6c0000000000000000000000000000000000000000000000000000602082015250565b6000610c2a602683610912565b9150610c3582610bce565b604082019050919050565b60006020820190508181036000830152610c5981610c1d565b9050919050565b7f416464726573733a2063616c6c20746f206e6f6e2d636f6e7472616374000000600082015250565b6000610c96601d83610912565b9150610ca182610c60565b602082019050919050565b60006020820190508181036000830152610cc581610c89565b9050919050565b600081519050919050565b600081905092915050565b60005b83811015610d00578082015181840152602081019050610ce5565b83811115610d0f576000848401525b50505050565b6000610d2082610ccc565b610d2a8185610cd7565b9350610d3a818560208601610ce2565b80840191505092915050565b6000610d528284610d15565b915081905092915050565b600081519050919050565b6000601f19601f8301169050919050565b6000610d8482610d5d565b610d8e8185610912565b9350610d9e818560208601610ce2565b610da781610d68565b840191505092915050565b60006020820190508181036000830152610dcc8184610d79565b90509291505056fea26469706673582212200c9ac6c037eb53556c11df88f7966125f685fd4ffea2aa8b10e293a24165c05d64736f6c634300080b0033",
  "immutableReferences": {},
  "source": "// SPDX-License-Identifier: MIT\r\npragma solidity >=0.6.0 <0.9.0;\r\n\r\nimport '@openzeppelin/contracts/token/ERC20/ERC20.sol';\r\nimport '@openzeppelin/contracts/token/ERC20/utils/SafeERC20.sol';\r\nimport '@openzeppelin/contracts/access/Ownable.sol';\r\n\r\n/**\r\n    Ensures that any contract that inherits from this contract is able to\r\n    withdraw funds that are accidentally received or stuck.\r\n */\r\n\r\ncontract Withdrawable is Ownable {\r\n    using SafeERC20 for ERC20;\r\n    address constant ETHER = address(0);\r\n\r\n    event LogWithdraw(\r\n        address indexed _from,\r\n        address indexed _assetAddress,\r\n        uint256 amount\r\n    );\r\n\r\n    /**\r\n     * @dev Withdraw asset.\r\n     * @param _assetAddress Asset to be withdrawn.\r\n     */\r\n    function withdraw(address _assetAddress) public onlyOwner {\r\n        uint256 assetBalance;\r\n        if (_assetAddress == ETHER) {\r\n            address self = address(this); // workaround for a possible solidity bug\r\n            assetBalance = self.balance;\r\n            payable(msg.sender).transfer(assetBalance);\r\n        } else {\r\n            assetBalance = ERC20(_assetAddress).balanceOf(address(this));\r\n            ERC20(_assetAddress).safeTransfer(msg.sender, assetBalance);\r\n        }\r\n        emit LogWithdraw(msg.sender, _assetAddress, assetBalance);\r\n    }\r\n}\r\n",
  "sourcePath": "C:\\Vatsal\\Arbatrage Bot\\Arbatrage-Bot\\contracts\\utils\\Withdrawable.sol",
  "compiler": {
    "name": "solc",
    "version": "0.8.11+commit.d7f03943.Emscripten.clang"
  },
  "schemaVersion": "3.4.5",
  "updatedAt": "2022-02-25T22:32:23.708Z",
  "devdoc": {
    "kind": "dev",
    "methods": {
      "owner()": {
        "details": "Returns the address of the current owner."
      },
      "renounceOwnership()": {
        "details": "Leaves the contract without owner. It will not be possible to call `onlyOwner` functions anymore. Can only be called by the current owner. NOTE: Renouncing ownership will leave the contract without an owner, thereby removing any functionality that is only available to the owner."
      },
      "transferOwnership(address)": {
        "details": "Transfers ownership of the contract to a new account (`newOwner`). Can only be called by the current owner."
      },
      "withdraw(address)": {
        "details": "Withdraw asset.",
        "params": {
          "_assetAddress": "Asset to be withdrawn."
        }
      }
    },
    "version": 1
  },
  "userdoc": {
    "kind": "user",
    "methods": {},
    "notice": "Ensures that any contract that inherits from this contract is able to withdraw funds that are accidentally received or stuck.",
    "version": 1
  }
}